S0120000504944436F6E74726F6C2E7372656354
S11300000C9434000C9446000C9446000C94460066
S11300100C9446000C9446000C9446000C94460044
S11300200C9446000C9446000C9446000C94460034
S11300300C9446000C9446000C9446000C94460024
S11300400C9446000C9446000C9446000C94460014
S11300500C9446000C9473000C9446000C944600D7
S11300600C9446000C94460011241FBECFEFD8E038
S1130070DEBFCDBF21E0A0E0B1E001C01D92A630FB
S1130080B207E1F70E94B4000C94C1000C94000084
S1130090E0E8F0E0808182688083E1E8F0E080813C
S11300A0886180838081816080838FEF93E0909367
S11300B08700809386000895EAE7F0E080818068F5
S11300C08083808187608083ACE7B0E08C9181601D
S11300D08C938C9180648C938081886080838081F0
S11300E08064808308951F920F920FB60F9211249B
S11300F02F938F939F93EF93FF9380917800209198
S1130100790090E0922B9093050180930401EAE733
S1130110F0E0808180648083FF91EF919F918F91C3
S11301202F910F900FBE0F901F90189520910401EE
S1130130309105018091000190910101281B390B38
S1130140C901880F991F220F331F220F331F220F5B
S1130150331F820F931F90930301809302019093A6
S11301600101809300010895219A0E9448000E9491
S11301705C007894C8E8D0E00E9496009983888354
S1090180FBCFF894FFCF51
S9030000FC
