S016000061746D656761333238505F4949492E7372656378
S11300000C9434000C943E000C943E000C943E007E
S11300100C943E000C943E000C943E000C943E0064
S11300200C943E000C943E000C943E000C943E0054
S11300300C943E000C943E000C943E000C943E0044
S11300400C943E000C943E000C943E000C943E0034
S11300500C943E000C943E000C943E000C943E0024
S11300600C943E000C943E0011241FBECFEFD8E048
S1130070DEBFCDBF0E9440000C944B000C940000E6
S113008014B884B1806384B985B1806385B985B1BE
S10D00908F7C85B9F9CFF894FFCFF7
S9030000FC
