:100000000C9434000C9451000C9451000C94510049
:100010000C9451000C9451000C9451000C9451001C
:100020000C9451000C9451000C9451000C9451000C
:100030000C9451000C9451000C9451000C945100FC
:100040000C9451000C9451000C9451000C945100EC
:100050000C9451000C9451000C9451000C945100DC
:100060000C9451000C94510011241FBECFEFD8E026
:10007000DEBFCDBF11E0A0E0B1E0E4E9F3E002C0F3
:1000800005900D92A230B107D9F721E0A2E0B1E0CE
:1000900001C01D92A430B207E1F70E9467000C94E2
:1000A000C8010C940000E0E8F0E080818268808361
:1000B000E1E8F0E0808188618083808181608083D5
:1000C00080E496E090938700809386000895219ABB
:1000D0000E945300C8E8D0E080910001843618F4F3
:1000E0008F5F8093000180910001843611F410929B
:1000F00000012FEF81EE94E0215080409040E1F725
:1001000000C000006091000170E080E090E00E947B
:10011000CF002AE037ED43E25CE30E94330120E0A8
:1001200030E048EC54E40E9433010E949E0070933A
:1001300003016093020179836883CECF0E9412018C
:1001400088F09F5798F0B92F9927B751B0F0E1F098
:10015000660F771F881F991F1AF0BA95C9F714C048
:10016000B13091F00E942C01B1E008950C942C0163
:10017000672F782F8827B85F39F0B93FCCF3869581
:1001800077956795B395D9F73EF4909580957095DE
:1001900061957F4F8F4F9F4F0895E89409C097FB5B
:1001A0003EF490958095709561957F4F8F4F9F4F4E
:1001B0009923A9F0F92F96E9BB279395F695879592
:1001C00077956795B795F111F8CFFAF4BB0F11F455
:1001D00060FF1BC06F5F7F4F8F4F9F4F16C08823FC
:1001E00011F096E911C0772321F09EE8872F762F32
:1001F00005C0662371F096E8862F70E060E02AF073
:100200009A95660F771F881FDAF7880F969587955E
:1002100097F9089557FD9058440F551F59F05F3FC7
:1002200071F04795880F97FB991F61F09F3F79F018
:1002300087950895121613061406551FF2CF46959A
:10024000F1DF08C0161617061806991FF1CF86951C
:100250007105610508940895E894BB276627772700
:10026000CB0197F908950E9446010C94B7010E94B2
:10027000A90138F00E94B00120F0952311F00C94F0
:10028000A0010C94A60111240C942D010E940A01D6
:1002900070F3959FC1F3950F50E0551F629FF001D9
:1002A000729FBB27F00DB11D639FAA27F00DB11DF2
:1002B000AA1F649F6627B00DA11D661F829F22277B
:1002C000B00DA11D621F739FB00DA11D621F839F02
:1002D000A00D611D221F749F3327A00D611D231FD8
:1002E000849F600D211D822F762F6A2F11249F5726
:1002F00050409AF0F1F088234AF0EE0FFF1FBB1F29
:10030000661F771F881F91505040A9F79E3F5105E7
:1003100080F00C94A0010C942D015F3FE4F3983E13
:10032000D4F3869577956795B795F795E7959F5F91
:10033000C1F7FE2B880F911D9695879597F9089523
:1003400097F99F6780E870E060E008959FEF80EC88
:10035000089500240A94161617061806090608952B
:1003600000240A9412161306140605060895092E91
:100370000394000C11F4882352F0BB0F40F4BF2B00
:1003800011F460FF04C06F5F7F4F8F4F9F4F089540
:04039000F894FFCF0F
:02039400460021
:00000001FF
