:100000000C9434000C9446000C9446000C9446006A
:100010000C9446000C9446000C9446000C94460048
:100020000C9446000C9446000C9446000C94460038
:100030000C9446000C9446000C9446000C94460028
:100040000C9446000C9446000C9446000C94460018
:100050000C9446000C947F000C9446000C944600CF
:100060000C9446000C94460011241FBECFEFD8E03C
:10007000DEBFCDBF21E0A0E0B1E001C01D92A23003
:10008000B207E1F70E945C000C94A2000C940000FF
:10009000E0E8F0E0808182688083E1E8F0E0808140
:1000A000886180838081816080838FEF93E090936B
:1000B0008700809386000895219A0E944800EAE70D
:1000C000F0E0808180688083808187608083ACE7F6
:1000D000B0E08C9181608C938C9180648C93808152
:1000E000886080838081806480837894E8E8F0E091
:1000F000809100019091010191838083F9CF1F923B
:100100000F920FB60F9211242F938F939F93EF931B
:10011000FF93809178002091790090E0922B90934A
:10012000010180930001EAE7F0E080818064808330
:10013000FF91EF919F918F912F910F900FBE0F9094
:080140001F901895F894FFCF01
:00000001FF
