S015000061746D656761333238505F49562E73726563B5
S11300000C9434000C943E000C943E000C943E007E
S11300100C943E000C943E000C943E000C943E0064
S11300200C943E000C943E000C943E000C945C0036
S11300300C943E000C943E000C943E000C943E0044
S11300400C943E000C943E000C943E000C943E0034
S11300500C943E000C943E000C943E000C943E0024
S11300600C943E000C943E0011241FBECFEFD8E048
S1130070DEBFCDBF0E9440000C9472000C940000BF
S1130080259A10928200E1E8F0E01082109280003C
S113009080818460808382E19AE7909389008093D1
S11300A08800EFE6F0E0808182608083789410928B
S11300B0850010928400FFCF1F920F920FB60F920B
S11300C011248F939F93109285001092840095B110
S11300D080E2892785B99F918F910F900FBE0F9071
S10B00E01F901895F894FFCF5E
S9030000FC
