S01A000050495F506F736974696F6E436F6E74726F6C2E73726563DC
S11300000C9434000C9451000C9451000C94510045
S11300100C9451000C9451000C9451000C94510018
S11300200C9451000C9451000C9451000C94510008
S11300300C9451000C9451000C9451000C945100F8
S11300400C9451000C9451000C9451000C945100E8
S11300500C9451000C947E000C9451000C945100AB
S11300600C9451000C94510011241FBECFEFD8E022
S1130070DEBFCDBF11E0A0E0B1E0E2E6F2E002C0F5
S113008005900D92A030B107D9F728E0A0E0B1E0C7
S113009001C01D92A63DB207E1F70E94F1000C9445
S11300A02F010C940000E0E8F0E0808182688083F6
S11300B0E1E8F0E0808188618083808181608083D1
S11300C08FEF93E090938700809386000895EAE78A
S11300D0F0E0808180688083808187608083ACE7E2
S11300E0B0E08C9181608C938C9180648C9380813E
S11300F08860808380818064808308951F920F923A
S11301000FB60F9211242F938F939F93EF93FF9326
S1130110809178002091790090E0922B90930501D2
S11301208093040180917C0081FF11C0ECE7F0E032
S113013080818D7F808380818160808380910401B0
S113014090910501909301018093000114C0809166
S11301507C0080FF10C0ECE7F0E080818E7F80831C
S11301608081826080838091040190910501909345
S1130170030180930201EAE7F0E0808180648083D8
S1130180FF91EF919F918F912F910F900FBE0F9040
S11301901F901895853823E0920710F084E893E0C7
S11301A08436910510F484E690E0861B970B9C013D
S11301B0220F331F880F991F880F991F880F991FCB
S11301C0820F931F9C01992324F422273327281B91
S11301D0390BC901811524E0920714F08FEF93E0E5
S11301E00895219A8AB1806C8AB90E9453000E94B2
S11301F067007894E6E0F1E080E090E081939193E9
S11302000196883E23E09207C9F708E810E0C09100
S11302100001D0910101BE0180910201909103017E
S11302200E94CA00C456D109C132D34020F0F8015B
S11302301182108203C0F801918380832091000110
S1130240309101018091020190910301281739072F
S113025018F45F9A5E98DBCF5E9A5F98D8CFF894D3
S1050260FFCFCA
S9030000FC
